9201903010000010200556418150636228****9090000000MARIA JOSEFINALOJA DO Ó - MATRIZ
4201906010000050617845152540731234****2231100000MARCOS PEREIRAMERCADO DA AVENIDA
2201903010000010900232702980568723****9987123333JOSÉ COSTA    MERCEARIA 3 IRMÃOS
